:100000001FC047C32DC02CC02BC02AC029C028C088
:1000100024C326C025C04DC223C022C021C020C099
:100020001FC0C8C82301240F260721012201310463
:1000300046616E204B69746368656E2076310000FE
:1000400011241FBECFE5D1E0DEBFCDBF20E0A0E68A
:10005000B0E001C01D92AF38B207E1F7F1D3C4C7D9
:10006000CFCFCF93DF93C82F80917300882331F0D7
:10007000CC2311F08C1302C010927300D091750044
:10008000CD1709F4D8C0D1113DC0C0937300D091F1
:100090007200C430E0F08AE190E075D74C2F50E058
:1000A000282F30E02D5F3F4F241735071CF48D5F5C
:1000B00080937300D150D23010F4C0E01AC08AE1AE
:1000C00090E061D7C3E0C80F8CE090E00FC089E1F9
:1000D00090E059D78C1710F480937300D43068F7F0
:1000E00089E190E050D7C82F8AE090E04CD7809308
:1000F000710080917100811126C0C091730010922F
:10010000730021C0CC23F9F0C43028F0D43090F42F
:100110008BE090E004C0D43068F08DE090E033D7FD
:1001200080937100882379F0D0937200C09373009C
:10013000C0E009C080917300882329F0C093730048
:10014000C0936B0078C0809173008C1304C0109230
:1001500071001092730010927500E0918D00F09183
:100160008E0090918A009095808189238083809170
:100170006E0081110CC080916D00811108C08091CA
:100180008C0084FF02C0D89802C083FDC098CC23A5
:1001900009F449C08C2F90E08E5E9F4FF4D6909169
:1001A0008C0060918B00282F30E0C430E8F04BE3E6
:1001B00050E050938E0040938D0040E840938A00B9
:1001C000462F552747FD50954217530734F492FFA9
:1001D00003C021E020938A00861B94FF02C0D89AB6
:1001E0001BC093FF19C017C048E350E050938E0026
:1001F00040938D0042E040938A00462F552747FDEB
:1002000050954217530734F491FF03C021E0209327
:100210008A00861B95FDC09AC0936B008093740082
:10022000C093750008C080917300811104C0809153
:100230008C0085FDC09880917500811107C0809168
:100240007300811103C010927F0012C080916D0075
:1002500081110EC0C11102C0C0917300C43018F0EA
:100260008FE090E002C08EE090E08DD680937F001A
:10027000DF91CF910895882331F09AE19A95F1F7B3
:1002800000C08150F8CFA8950895009761F02FEF36
:1002900030E742E0215030404040E1F700C000002C
:1002A000A8950197F2CF0895FF920F931F93CF93D4
:1002B000DF93F82E062F10E0C42FD0E0A12CFF20F2
:1002C00041F0C801E2DFAA24A394CE01DEDFFA9454
:1002D000F5CFDF91CF911F910F91FF9008958FB9C6
:1002E00080E48EB98BE18DB9769BFDCF8FB10895F7
:1002F000DB988F71F4DF8FEFF2DFDB9A0895EF92D6
:10030000FF921F93CF93DF9300D0CDB7DEB7142FAA
:10031000DB9869837A83E3DF6981E62E7A81F72EA1
:10032000160F1E1531F08FEFDADFF70181937F0191
:10033000F8CFDB9A0F900F90DF91CF911F91FF9034
:10034000EF900895CF93DF931F92CDB7DEB7DB9880
:100350006983C5DF6981862FC2DFDB9A0F90DF9149
:10036000CF910895EF92FF921F93CF93DF9300D028
:10037000CDB7DEB7142FDB9869837A83B0DF69814C
:10038000E62E7A81F72E160F1E1529F0F7018191BE
:100390007F01A5DFF9CFDB9A0F900F90DF91CF910E
:1003A0001F91FF90EF900895DB9899DFDB9A0895F5
:1003B000CF93C82F682F6E6780E2C4DFC0FDDA9A42
:1003C000CF9108951F93CF93DF93EC018FEFECDF74
:1003D000182F86FF0CC044E0BE0181E690DF60E785
:1003E00087E2B0DF812F869587708F5F05C087E138
:1003F0007FDF80FFF0CF80E0DF91CF911F910895E4
:10040000CF93DF93EC01DA9860E787E29BDF44E06B
:10041000BE0180EAA7DFDA9AC0E08AE02CDF8FEF26
:10042000C3DF85FD0AC084FF04C081EEBDDF81E02B
:1004300005C0C15091F782E001C080E0DF91CF910B
:100440000895CF93C82F8093860042E050E062E287
:1004500070E087E890E08ED543E066E870E08AE2DD
:1004600081DF43E066E870E080E37CDF43E066E83C
:1004700070E080E144DF81E0909186009C1380E091
:10048000CF9108951F93CF93DF93182FDB9AC4E287
:10049000D0E0FE0184913196649154DF2296F0E021
:1004A000C033DF07B1F7612F85E2DF91CF911F9154
:1004B00049CF78941F920F920FB60F9211242F9369
:1004C0008F939F93EF93FF93809175008823D9F0CA
:1004D0008091600090917400890F8093600020915A
:1004E0008B00E0918D00F0918E0090918A00821730
:1004F00034F0821B809360008081892B03C090952B
:10050000808189238083809165008F5F809365005F
:10051000909177008A3008F477C01092650080913E
:1005200064008F5F8A3018F48093640005C01092D5
:10053000640081E08093630080916600882339F035
:10054000815080936600811145C0A12C43C08091E9
:100550006A00882331F0AA24A394815080936A0012
:1005600039C080916900882319F0A12C81500FC0F7
:1005700080916800882371F08150809368002EE09C
:1005800020936A00811102C086E00EC084E080934F
:10059000690020C080916700882371F081508093AA
:1005A000670083E080936A00809369008091670010
:1005B000811110C089E1EBCF80916B00882351F04D
:1005C000282F22952F70209368008F7080936700EA
:1005D00010926B0080917A00882319F081508093EB
:1005E0007A0080916C00882319F0815080936C0010
:1005F00091110AC0809178008F3F61F0B3990AC0D1
:100600008F5F8093780006C0992321F091509093DA
:10061000770009C0B39907C080917800811103C0A9
:1006200081E080937800AA2011F0D99A0BC08091C4
:100630007500811104C0D89902C0C09B02C0D19836
:1006400002C0D998D19AFF91EF919F918F912F91EC
:100650000F900FBE0F901F9018951F920F920FB61C
:100660000F9211248F9380917E00823041F480910B
:100670007D00893030F083E080937E0004C08130BB
:1006800011F410927E008F910F900FBE0F901F906B
:1006900018951F920F920FB60F9211242F933F932C
:1006A0004F935F936F937F938F939F93EF93FF93FA
:1006B00080917E00833008F056C0ECB5FDB51DBCBE
:1006C0001CBC811102C081E04CC0813071F41092D9
:1006D0007D0085E095E190937C0080937B00F09312
:1006E0008500E093840082E03CC02091840030913A
:1006F0008500C90163E070E020D4969587959695B2
:100700008795E817F90768F0CF0163E070E015D42A
:1007100096958795969587952817390720F442E096
:1007200003C041E001C040E080917B0090917C00DB
:100730009C0155E0220F331F5A95E1F7280F391F0E
:10074000242730937C0020937B00F0938500E09376
:10075000840080917D008F5F80937D00811103C0B4
:1007600083E080937E00FF91EF919F918F917F9125
:100770006F915F914F913F912F910F900FBE0F900E
:100780001F90189590916B00911102C080936B009F
:1007900008951092690010926A00109267001092FA
:1007A000680080936B00A12C08956DE081E090E0DB
:1007B000F6D361EC82E090E0F2D36AE783E090E068
:1007C000EED36FE082E190E0EAD360E080E190E078
:1007D000E6D360E080E290E0E2C381E090E0D3D332
:1007E00080938C0082E190E0CED380938B000895BB
:1007F000873008F436CC0895CF93C091750089E115
:1008000090E0C1D3C81770F0C43080F08AE190E066
:10081000BAD32C2F30E022503109482F50E0421734
:10082000530724F081E08C0FCF91E2CFCF91089550
:1008300080917500843011F480E013CC8150D8CFC2
:10084000CF93DF931F92CDB7DEB780E886BD16BC8D
:1008500080E285BF8AB38C638ABB8AB381688ABB16
:1008600087B3836087BBC39A81E080BF8DE083BF7D
:1008700087E286BF89B7816089BF83E08FBD8BE146
:100880008EBD84EC99E09BBD8ABD609A85B781607E
:1008900085BF8BB780648BBF8AB780648ABF88E1CD
:1008A00081BD8EE081BD80E190E06DD3873010F096
:1008B0007CDF80E0898391DF7894898199DF4AE049
:1008C00060E081E0F1DC80918C0080FD07C002E0F7
:1008D0001FEF83E0F82E9CE3E92E40C083E090E018
:1008E00052D3D0DD82E090E04ED3ABDD811105C064
:1008F00041E061E085E0D8DCF5CF81E059DDE7CF6C
:100900001092630080916100909162000196909333
:100910006200809361008830974038F580917100C3
:10092000811137C080917300882311F080E12ADFA4
:100930008091760081113BC080917A00882309F470
:1009400053C080917E00833009F47AC08091780092
:10095000811150C180918C0080FD5BC18895A89564
:1009600080916300882369F3CBCF109262001092CC
:10097000610080917F00882389F2815080937F00FD
:100980008111CCCF80917500882341F280E069DB32
:10099000C5CF8150809371008111C4CF80917300C5
:1009A000882311F025DFBECF10927200BBCF80915B
:1009B000760081508093760081110CC080916F0089
:1009C000882341F010926F001092700043E063E0C2
:1009D00085E06ADC80916F00882309F4ADCF8091B7
:1009E00070008F5FCFDEA8CF8091790010927900E0
:1009F000882309F4A6CF90916F00923049F480913A
:100A0000750090E0609174008E5E9F4FC8D2DACF7F
:100A1000853008F028C1833008F493CF80917500A9
:100A2000882309F48ECF4FE065E081E03DDC009340
:100A30006F008091740080936B001093760081CFDB
:100A400010927E0080E290E09ED267E06DD2982EF8
:100A500020916F00213039F480917A0081117ECF8E
:100A600080917000980E00936600AA24A394C09011
:100A70007B00D0907C00B1E26B2EB0E07B2EB12CDD
:100A8000B91409F484C0C301298385D232E0630E0E
:100A9000711C29818C159D0509F077C08B2D67E0AD
:100AA0005DD2213061F4963029F410927C001092CE
:100AB0007B0074C041E061E085E0F6DB68C0963001
:100AC00049F4809179008F5F8093790082E380936D
:100AD0007A005DC080917A00811159C000937A003C
:100AE000943019F42230E9F56DCF9230D9F42230E8
:100AF00089F440917400242F30E080918B00992775
:100B000087FD9095281739070CF0F9C04F5F409387
:100B10007400F5C080917500843010F06DDE37C030
:100B200086E01FC0933099F4223049F4809174001C
:100B3000823008F4E4C0815080937400E0C080915A
:100B40007500843010F074DE22C084E00AC0911178
:100B50000AC0223071F28091750081508330F0F22A
:100B600083E07FDA14C0913049F42230F9F28091A9
:100B700075008150833038F381E0F3CF953039F43C
:100B800080916E0091E08927CBC0B39479CF80919A
:100B90006F00813009F0DACEB910D8CE80E290E053
:100BA000F2D1D82EE0917B00F0917C0090E067E0DC
:100BB00070E0C3D120917000820F911D880F991FA2
:100BC000BF018F5D9F4FFDD180E0E3DD809170001C
:100BD000863030F48F5F80937000E0927600B6CE5E
:100BE000D3946D2D80E290E0DAD189E08D1508F480
:100BF000E9CE39C0893208F463C0AA24A394B3991A
:100C000002C0A895FCCF80917800883760F1CDDDD7
:100C100066C080E890E0D6DB882309F49FCE00937D
:100C20006600AA24A39490918300903C09F090C0A0
:100C30008091800090918100209182002E3009F4F3
:100C40004AC0213009F44EC0223009F452CF23307B
:100C500009F46CCF243009F457C0222309F460C092
:100C6000253009F07BCE41E061E083E01DDB8FE0C1
:100C700090E00BDB1092780080E290E084D1D82ED7
:100C8000E9E0E81768F441E061E082E30DDB809180
:100C90007800882309F462CE60E080E290E07FD1A2
:100CA00081E08D0D8295807F80936B0010927E0095
:100CB00081E080936F0010927000E09276004ACE3F
:100CC000B39B48CE81E190E05ED192DD1093770036
:100CD000109278003FCE8E3E9E4E09F03FCED19AC4
:100CE000F894FFCFD82E26E028170CF437CE80DDFD
:100CF000D11034CE42E062E083E0D6DA2FCE80918C
:100D0000740080936B000DC180917500882309F4F5
:100D100008C190E0609174008E5E9F4F40D101C188
:100D200080936E0090916E0080918C00992341F029
:100D300083FF02C0C09A12CE84FF10CED89A0ECE86
:100D400083FF02C0C0980ACE84FF08CED89806CE92
:100D50009F3209F4B8C096FF7FC0892F807F292F6A
:100D60002F708034B9F480918000909181008D3A89
:100D7000910508F0F3CD805090402983223011F482
:100D80000AD102C000D190E090938100809380004E
:100D9000298130C0803591F4F894E0918000F09181
:100DA0008100223019F48081918102C0808190E01D
:100DB000909381008093800078941CC0803609F065
:100DC000CDCD223059F4E0918000F09181008591E1
:100DD000949190938100809380000CC0213051F455
:100DE000E0918000F0918100E491F0E0F0938100C7
:100DF000E093800081E090E0298347DA80E0D8DA50
:100E000029812530E1F4E0E38E2EE0E09E2EF4010E
:100E1000849190E0909381008093800080E890E03E
:100E2000EFDAD82E81110FC08FEF25DAFFEF8F1A7E
:100E30009F0A2FE3821620E0920649F704C080E85B
:100E400090E0DEDAD82E81E0B3DADD2009F486CD39
:100E500080E18D0D9EDC82CD97FF38C080916C00C3
:100E6000882309F47BCD892F80739F70803199F49A
:100E7000F894E0918200923041F48091800090914A
:100E80008100F0E09183808304C0F0E080918000D5
:100E90008083789418C0811116C0809182009230AE
:100EA00049F4609180007091810090E08050904002
:100EB00088D006C090E060918000805090406FD054
:100EC0008CDC82E066DCF0926C0048CD80917F0083
:100ED000811144CD80917600811140CD81E08093D5
:100EE0006D00C0908000D090810088E090E053D0E9
:100EF0008C159D0578F086E090E04DD08C159D0511
:100F000058F084E090E047D021E08C159D0528F052
:100F100020E003C023E001C022E0822F69DC1092B0
:100F20006D00109376001ACD002480FD060E660F2A
:100F300011F08695D1F7802D08950024552704C01F
:100F4000080E591F880F991F009729F0769567950D
:100F5000B8F37105B9F7802D952F0895991B79E0A5
:100F600004C0991F961708F0961B881F7A95C9F739
:100F700080950895FB01DC0102C005900D9241505F
:100F80005040D8F70895E199FECF1FBA8EBBE09A82
:100F900099278DB30895A8E1B0E042E018C0262F4C
:100FA000E199FECF1FBA8EBBE09A81500DB20216B6
:100FB00039F01CBA2DBB0FB6F894E29AE19A0FBE35
:100FC00008950196272FECDFEACFDC01862FE82F6A
:100FD000E199FECF1FBA05C0EEBBE09AE3950DB2D2
:0C0FE0000D924150C8F70895F894FFCF1F
:00000001FF
